:100000000C945D000C9485000C9485000C94850084
:100010000C9485000C9485000C9485000C9485004C
:100020000C9485000C9485000C9485000C942C0392
:100030000C9485000C9485000C9485000C9485002C
:100040000C94E2020C9485000C94B0020C948A0289
:100050000C9485000C9485000C9485000C9485000C
:100060000C9485000C94850000000008000201003B
:100070000003040700000000000000000000000072
:10008000250028002B0000000000240027002A0083
:10009000040404040404040402020202020203032E
:1000A0000303030301020408102040800102040836
:1000B0001020010204081020A80511241FBECFEF54
:1000C000D8E0DEBFCDBF11E0A0E0B1E0ECE2F8E1A6
:1000D00002C005900D92A832B107D9F721E0A8E23D
:1000E000B1E001C01D92A13EB207E1F710E0CDE5FD
:1000F000D0E004C02197FE010E94E90ACC35D10767
:10010000C9F70E9447060C94140C0C94000090E070
:10011000FC01EC55FF4F249180579F4FFC018491C7
:10012000882399F090E0880F991FFC01EA57FF4F50
:10013000A591B491FC01E458FF4F859194918FB73C
:10014000F894EC91E22BEC938FBF0895AF92BF929D
:10015000CF92DF92EF92FF920F931F93CF93DF9393
:100160006C017B018B01040F151FEB015E01AE18C2
:10017000BF08C017D10759F06991D601ED91FC91E4
:100180000190F081E02DC6010995892B79F7C50111
:10019000DF91CF911F910F91FF90EF90DF90CF9063
:1001A000BF90AF900895FC01538D448D252F30E012
:1001B000842F90E0821B930B541710F0CF96089574
:1001C00001970895FC01918D828D981761F0A28DA1
:1001D000AE0FBF2FB11D5D968C91928D9F5F9F7367
:1001E000928F90E008958FEF9FEF0895FC01918D1D
:1001F000828D981731F0828DE80FF11D858D90E08A
:1002000008958FEF9FEF0895FC01918D228D892F26
:1002100090E0805C9F4F821B91098F73992708950E
:1002200081E391E00E94040121E0892B09F420E0A0
:10023000822F089580E090E0892B29F00E94100120
:1002400081110C9400000895FC01A48DA80FB92F12
:10025000B11DA35ABF4F2C91848D90E001968F73EE
:100260009927848FA689B7892C93A089B1898C910D
:10027000837080648C93938D848D981306C002885C
:10028000F389E02D80818F7D80830895EF92FF9226
:100290000F931F93CF93DF93EC0181E0888F9B8DA9
:1002A0008C8D98131AC0E889F989808185FF15C063
:1002B0009FB7F894EE89FF896083E889F989808186
:1002C0008370806480839FBF81E090E0DF91CF9155
:1002D0001F910F91FF90EF900895F62E0B8D10E077
:1002E0000F5F1F4F0F731127E02E8C8D8E110CC0E6
:1002F0000FB607FCFACFE889F989808185FFF5CF31
:10030000CE010E942401F1CFEB8DEC0FFD2FF11DEA
:10031000E35AFF4FF0829FB7F8940B8FEA89FB896D
:1003200080818062CFCFCF93DF93EC01888D8823CB
:10033000B9F0AA89BB89E889F9898C9185FD03C048
:10034000808186FD0DC00FB607FCF7CF8C9185FF2D
:10035000F2CF808185FFEDCFCE010E942401E9CF4D
:10036000DF91CF91089590E0FC01E859FF4F24916F
:10037000FC01EC55FF4F3491FC01E057FF4FE49135
:10038000EE23C9F0222339F0233001F1A8F4213003
:1003900019F1223029F1F0E0EE0FFF1FE458FF4F72
:1003A000A591B4918FB7F894EC91611126C0309566
:1003B0003E233C938FBF08952730A9F02830C9F021
:1003C000243049F7809180008F7D03C080918000A8
:1003D0008F7780938000DFCF84B58F7784BDDBCFAC
:1003E00084B58F7DFBCF8091B0008F778093B00074
:1003F000D2CF8091B0008F7DF9CF3E2BDACF8E30F7
:1004000008F08E508770806480937C0080917A0021
:10041000806480937A0080917A0086FDFCCF809181
:1004200078009091790008953FB7F89480912D015C
:1004300090912E01A0912F01B091300126B5A89B7B
:1004400005C02F3F19F00196A11DB11D3FBFBA2F66
:10045000A92F982F8827BC01CD01620F711D811D26
:10046000911D42E0660F771F881F991F4A95D1F7AB
:100470000895FC0101900020E9F73197AF01481B76
:10048000590BBC0181E391E00C94A6008F929F92DE
:10049000AF92BF920F931F93CF93DF93CDB7DEB789
:1004A000A1970FB6F894DEBF0FBECDBF19A24230A0
:1004B00008F44AE08E010F5D1F4F842E912CB12C61
:1004C000A12CA50194010E94A80AE62FB901CA0136
:1004D000EA30F4F4E05DD801EE938D01232B242B58
:1004E000252B79F790E080E0109719F0CD010E945C
:1004F0003902A1960FB6F894DEBF0FBECDBFDF91D3
:10050000CF911F910F91BF90AF909F908F900895C2
:10051000E95CE1CF1F920F920FB60F9211242F9337
:100520003F934F935F936F937F938F939F93AF937B
:10053000BF93EF93FF9381E391E00E942401FF9129
:10054000EF91BF91AF919F918F917F916F915F914B
:100550004F913F912F910F900FBE0F901F901895C4
:100560001F920F920FB60F9211242F938F939F9388
:10057000EF93FF93E0914101F09142018081E0917E
:100580004701F091480182FD1BC0908180914A0192
:100590008F5F8F7320914B01821741F0E0914A01E8
:1005A000F0E0EF5CFE4F958F80934A01FF91EF9151
:1005B0009F918F912F910F900FBE0F901F901895C4
:1005C0008081F4CF1F920F920FB60F9211242F93B8
:1005D0003F938F939F93AF93BF9380912901909105
:1005E0002A01A0912B01B0912C013091280123E028
:1005F000230F2D3758F50196A11DB11D2093280119
:100600008093290190932A01A0932B01B0932C0190
:1006100080912D0190912E01A0912F01B091300178
:100620000196A11DB11D80932D0190932E01A093E1
:100630002F01B0933001BF91AF919F918F913F9166
:100640002F910F900FBE0F901F90189526E8230F43
:100650000296A11DB11DD2CF1F920F920FB60F921D
:1006600011242F923F924F925F926F927F928F92BE
:100670009F92AF92BF92CF92DF92EF92FF920F9331
:100680001F932F933F934F935F936F937F938F931A
:100690009F93AF93BF93EF93FF93CF93DF9300D0DC
:1006A00000D0CDB7DEB7F8942091CE013091CF01C4
:1006B0003A832983F12CE12CD12CC12CA981BA8158
:1006C00011968C9111978C151D04C1F0BCF01296F7
:1006D000ED91FC91EE0DFF1DFC83EB8380810E9468
:1006E000FF01AB81BC8119969C938E931897BFEF45
:1006F000CB1ADB0AECE3EE0EF11CE0CF312C212CFF
:1007000010E000E050E6852E5AEE952EA12CB12C7B
:10071000A981BA8111968C9111978017110609F061
:100720000CF4EAC11296ED91FC91E20DF31DFC83ED
:10073000EB8340A851A862A873A8808D918DA28DEB
:10074000B38D480E591E6A1E7B1E40AA51AA62AA8A
:1007500073AA84899589A689B7897201E81AF90A6A
:10076000868597850C97978786878685978597FDD9
:10077000C2C086859785873F99400CF0BFC0AB818A
:10078000BC811E968D919C91EB81FC819787868719
:1007900080859185C0ACD1AC8C159D05CCF482854B
:1007A000938565E070E00E94940ACB01880F991F41
:1007B000680F791F6E157F055CF42085318586A949
:1007C00097A92817390724F48085918597AB86ABC4
:1007D000AB81BC8118968D919C911997C816D9064A
:1007E0009CF418962D913C911997D4968D919C91DB
:1007F000D5978217930744F418968D919C91199779
:10080000D5969C938E93D497BBEFEB16F1040CF422
:10081000ABC0EB81FC8180859185C816D9060CF0B0
:10082000A3C084858111A0C08285938565E070E0B6
:100830000E94940ACB01880F991F680F791F6E15CB
:100840007F050CF091C021E0248784899589A689D1
:10085000B789F201E81BF90BAB81BC811B96FC93B5
:10086000EE931A97FD01448A558A668A778A83AD8A
:10087000882371F013AE7C96CD01C096AB81BC810C
:100880001A962D913C91219331938E179F07B1F7C2
:10089000EB81FC8182AD8823A1F112AE21E023AF70
:1008A000AB81BC8112968D919C91139797FD08C0E6
:1008B0001C962C9161E0211101C060E00E94B301FF
:1008C000EB81FC81E480F580F7FCECC086859785A0
:1008D0006AE070E00E94940A7C836B838E2D0E94F4
:1008E00087002B813C81232B09F0ACC060E08E2D6A
:1008F0000E94B301D7C090E080E046CF86EF99E038
:1009000043CFEB81FC817C964B815C81425D5F4FE4
:1009100030E020E08281938181939193280F391FE9
:100920004E175F07B9F7AB81BC811A968D919C91E8
:100930001B979F969C938E939E97820F931F6AE0BE
:1009400070E00E94800A9B0150E040E0C501B401C4
:100950000E94CA0AEB81FC813783268321E0258728
:1009600086EF99E097878687AB81BC8118968D9139
:100970009C9119978C159D053CF51C968C911C97A4
:10098000882311F11C961C921C97D6964D915C9170
:10099000D797D4962D913C91D597241B350B539620
:1009A0003C932E93529752968D919C9197FD019670
:1009B00095958795840F951FEB81FC8191AF80AF52
:1009C00095AB84AB97AB86ABF5ECEF16F9E0FF0681
:1009D0000CF466CFAB81BC8150968D919C91519760
:1009E000D9969C938E93D897E0E0F2E0D596FC934D
:1009F000EE93D497D796FC93EE93D69754964D9258
:100A00005D926D927C925797E1E0DA96EC93DA97DB
:100A1000DB961C92DB971D961C921D9717961C92D5
:100A20001E92169728E532E01B963C932E931A9758
:100A30001C961C921C9784E690E053969C938E9390
:100A400052972ECF8B819C818F3F910511F461E0ED
:100A50004ECFF701FF27E859FF4FE491E33071F1E2
:100A600050F4E130D1F0E23019F1AB81BC81A03813
:100A7000B1056CF73BCFE73069F1E830A1F1E43024
:100A8000A1F7809180008062809380002B813C815F
:100A900030938B0020938A0005C084B5806884BDA4
:100AA0009B8197BD0F5F1F4FBCE32B0E311C30CED7
:100AB00084B5806284BDAB81A8BDF4CF80918000F5
:100AC000806880938000EB81FC81F0938900E09343
:100AD0008800E8CF8091B00080688093B0003B81AF
:100AE0003093B300DFCF8091B00080628093B0007C
:100AF0008B818093B400D6CF81E0E981FA81808731
:100B000078940F900F900F900F90DF91CF91FF91FD
:100B1000EF91BF91AF919F918F917F916F915F9175
:100B20004F913F912F911F910F91FF90EF90DF9088
:100B3000CF90BF90AF909F908F907F906F905F907D
:100B40004F903F902F900F900FBE0F901F901895D1
:100B5000109234011092330188EE93E0A0E0B0E0EF
:100B60008093350190933601A0933701B0933801FB
:100B70008AE091E0909332018093310185EC90E01E
:100B800090933E0180933D0184EC90E0909340016E
:100B900080933F0180EC90E090934201809341016B
:100BA00081EC90E0909344018093430182EC90E0CB
:100BB000909346018093450186EC90E09093480124
:100BC0008093470110924A0110924B0110924C0100
:100BD00010924D011092DA011092D90182E090E05A
:100BE0009093DC018093DB0180ED91E09093CF0145
:100BF0008093CE0181E08093D1018CE390E00E944C
:100C0000EF0AFC018EE090E0918380838FEF9FEFED
:100C1000938382839583848382E090E0A0E0B0E0B8
:100C2000808F918FA28FB38FDF015C96CF01C0962A
:100C30001D921D928A179B07D9F715861782168277
:100C40008EEE92E093878287148610AA11AA12AAC8
:100C500013AA148A158A168A178A80E092E095AB47
:100C600084AB97AB86AB86E292E0918B808B91AFA1
:100C700080AF84E690E0938B828B81E082AF13AEED
:100C800017861686F093D301E093D20108957894E5
:100C900084B5826084BD84B5816084BD85B5826081
:100CA00085BD85B5816085BD80916E008160809332
:100CB0006E0010928100809181008260809381009B
:100CC00080918100816080938100809180008160AB
:100CD000809380008091B10084608093B100809106
:100CE000B00081608093B00080917A00846080932E
:100CF0007A0080917A00826080937A0080917A00F5
:100D0000816080937A0080917A00806880937A0075
:100D10001092C100E0914101F091420182E0808394
:100D2000E0913D01F0913E011082E0913F01F09190
:100D300040018FEC808310924901E0914501F091D0
:100D4000460186E08083E0914301F0914401808177
:100D500080618083E0914301F0914401808188604B
:100D60008083E0914301F091440180818068808319
:100D7000E0914301F091440180818F7D8083E09177
:100D8000D201F091D301118210828DE090E0938323
:100D90008283F89486E292E0918B808B91AF80AF52
:100DA000789410E000E0F12CE12C8091D1018E15B7
:100DB0001F0429F124F1C091D201D091D301C00FB9
:100DC000D11F8A819B8197FD06C00E94870060E049
:100DD0008A810E94B3018C819D8197FD0AC00E9487
:100DE0008700CC818C2F0E94870060E08C2F0E94AE
:100DF000B3012FEFE21AF20A045C1F4FD6CF0E9414
:100E000014026053784F8F4F9F4F6093D4017093BB
:100E1000D5018093D6019093D7011092D8011092FA
:100E2000D00110928000109282008CE080938100AB
:100E30008CE790E0909389008093880082E0809313
:100E40006F007894C0E0D0E0E091D201F091D3013E
:100E5000C680D78081E00E94FF018C01E091D20121
:100E6000F091D301F894858515867894882309F448
:100E700048C00D2C000CEE08FF084AE0C701B6017F
:100E8000F7FE0DC06DE281E391E00E944601662706
:100E90007727CB016C197D098E099F094AE00E94D2
:100EA0004602B801110F880B990B0E94590920E0E6
:100EB00030E040E85AE30E940E0A20E030E44CE9BA
:100EC00055E40E940E0A20E030E040E251E40E9426
:100ED000B6086B017C014B015C0188E191E00E9446
:100EE0003902A7019601C701B6010E947B0A882337
:100EF000B9F18BE191E00E94390288E191E00E9412
:100F000039020E9414024B015C0184E1C82ED12CED
:100F1000E12CF12C0E941402681979098A099B09B5
:100F2000683E734081059105A8F381E0C81AD10895
:100F3000E108F10828EE820E23E0921EA11CB11CEC
:100F4000C114D104E104F10429F7209709F47CCFFE
:100F50000E941001882309F477CF0E94000074CF0B
:100F600026013701E89477F82FEF3FEF4FE75FE76F
:100F7000C301B2010E947B0A81110DC02FEF3FEF28
:100F80004FE75FE7C301B2010E94B10818161CF4D5
:100F90008FE191E0B0CF2FEF3FEF4FE75FE4C70164
:100FA000B6010E94090A18161CF483E291E0A3CF4F
:100FB0002FEF3FEF4FE75FECC701B6010E94B1088A
:100FC00087FDF3CF20E030E0A901C701B6010E9400
:100FD000B10887FF0BC06DE281E391E00E944601FA
:100FE00046015701B7FAB094B7F8B0942AE037ED4C
:100FF00043EA5BE3C501B4010E9445084B015C0173
:101000000E9428096B017C010E9457099B01AC01D9
:10101000C501B4010E9444084B015C014AE0C701CC
:10102000B6010E9446026EE281E391E00E94460111
:1010300020E030E040E251E4C501B4010E940E0A14
:101040004B015C010E9428096B01F12CE12C4AE064
:10105000C701B6010E944602C701B6010E945709A6
:101060009B01AC01C501B4010E94440820E030E0BE
:1010700040E251E40E940E0A0E94280990E080E0BC
:101080004AE00E94460239CF5058BB27AA270E9447
:101090005C080C94CF090E94C10938F00E94C8096D
:1010A00020F039F49F3F19F426F40C94BE090EF495
:1010B000E095E7FB0C94B809E92F0E94E00958F38A
:1010C000BA17620773078407950720F079F4A6F52D
:1010D0000C94020A0EF4E0950B2EBA2FA02D0B01F2
:1010E000B90190010C01CA01A0011124FF27591B6D
:1010F00099F0593F50F4503E68F11A16F040A22F73
:10110000232F342F4427585FF3CF469537952795E3
:10111000A795F0405395C9F77EF41F16BA0B620BE2
:10112000730B840BBAF09150A1F0FF0FBB1F661F29
:10113000771F881FC2F70EC0BA0F621F731F841F6C
:1011400048F4879577956795B795F7959E3F08F092
:10115000B0CF9395880F08F09927EE0F9795879554
:1011600008950E94940908F481E008950E94CA0835
:101170000C94CF090E94C80958F00E94C10940F0A0
:1011800029F45F3F29F00C94B80951110C94030A1B
:101190000C94BE090E94E00968F39923B1F355232A
:1011A00091F3951B550BBB27AA276217730784077A
:1011B00038F09F5F5F4F220F331F441FAA1FA9F310
:1011C00035D00E2E3AF0E0E832D091505040E695FE
:1011D000001CCAF72BD0FE2F29D0660F771F881F5F
:1011E000BB1F261737074807AB07B0E809F0BB0B52
:1011F000802DBF01FF2793585F4F3AF09E3F510566
:1012000078F00C94B8090C94030A5F3FE4F3983E1D
:10121000D4F3869577956795B795F7959F5FC9F74E
:10122000880F911D9695879597F90895E1E0660FCF
:10123000771F881FBB1F621773078407BA0720F048
:10124000621B730B840BBA0BEE1F88F7E0950895B1
:101250000E94E80988F09F5798F0B92F9927B75155
:10126000B0F0E1F0660F771F881F991F1AF0BA954A
:10127000C9F714C0B13091F00E94020AB1E008959C
:101280000C94020A672F782F8827B85F39F0B93F8E
:10129000CCF3869577956795B395D9F73EF49095FD
:1012A0008095709561957F4F8F4F9F4F0895E8947B
:1012B00009C097FB3EF490958095709561957F4F9E
:1012C0008F4F9F4F9923A9F0F92F96E9BB2793954C
:1012D000F695879577956795B795F111F8CFFAF45C
:1012E000BB0F11F460FF1BC06F5F7F4F8F4F9F4F8D
:1012F00016C0882311F096E911C0772321F09EE8EB
:10130000872F762F05C0662371F096E8862F70E050
:1013100060E02AF09A95660F771F881FDAF7880F2A
:101320009695879597F90895990F0008550FAA0B80
:10133000E0E8FEEF16161706E807F907C0F01216E8
:101340001306E407F50798F0621B730B840B950BEB
:1013500039F40A2661F0232B242B252B21F4089540
:101360000A2609F4A140A6958FEF811D811D0895DD
:1013700097F99F6780E870E060E008959FEF80EC48
:10138000089500240A9416161706180609060895EB
:1013900000240A9412161306140605060895092E51
:1013A0000394000C11F4882352F0BB0F40F4BF2BC0
:1013B00011F460FF04C06F5F7F4F8F4F9F4F089500
:1013C00057FD9058440F551F59F05F3F71F04795F6
:1013D000880F97FB991F61F09F3F79F087950895DB
:1013E000121613061406551FF2CF4695F1DF08C0FA
:1013F000161617061806991FF1CF86957105610517
:1014000008940895E894BB2766277727CB0197F9BE
:1014100008950E94940908F48FEF08950E94210A0C
:101420000C94CF090E94C10938F00E94C80920F02D
:10143000952311F00C94B8090C94BE0911240C9456
:10144000030A0E94E00970F3959FC1F3950F50E0E5
:10145000551F629FF001729FBB27F00DB11D639F66
:10146000AA27F00DB11DAA1F649F6627B00DA11D0C
:10147000661F829F2227B00DA11D621F739FB00DB2
:10148000A11D621F839FA00D611D221F749F332722
:10149000A00D611D231F849F600D211D822F762FBB
:1014A0006A2F11249F5750409AF0F1F088234AF098
:1014B000EE0FFF1FBB1F661F771F881F9150504004
:1014C000A9F79E3F510580F00C94B8090C94030ACB
:1014D0005F3FE4F3983ED4F3869577956795B7958B
:1014E000F795E7959F5FC1F7FE2B880F911D9695A5
:1014F000879597F908950E949409880B990B089590
:10150000AA1BBB1B51E107C0AA1FBB1FA617B70729
:1015100010F0A61BB70B881F991F5A95A9F7809545
:101520009095BC01CD01089597FB072E16F4009409
:1015300007D077FD09D00E94800A07FC05D03EF451
:10154000909581959F4F0895709561957F4F08956F
:10155000A1E21A2EAA1BBB1BFD010DC0AA1FBB1FB7
:10156000EE1FFF1FA217B307E407F50720F0A21B29
:10157000B30BE40BF50B661F771F881F991F1A9496
:1015800069F760957095809590959B01AC01BD01C0
:10159000CF010895052E97FB1EF400940E94E10AE6
:1015A00057FD07D00E94A80A07FC03D04EF40C9404
:1015B000E10A50954095309521953F4F4F4F5F4F31
:1015C000089590958095709561957F4F8F4F9F4FAF
:1015D0000895EE0FFF1F0590F491E02D09940F93ED
:1015E0001F93CF93DF938230910510F482E090E057
:1015F000E091DF01F091E00130E020E0B0E0A0E018
:10160000309799F42115310509F44AC0281B390B8C
:1016100024303105D8F58A819B816115710589F1E6
:10162000FB0193838283FE0111C0408151810281BD
:10163000138148175907E0F04817590799F4109794
:1016400061F012960C93129713961C933296CF0169
:10165000DF91CF911F910F9108950093DF011093B7
:10166000E001F4CF2115310551F04217530738F04E
:10167000A901DB019A01BD01DF01F801C1CFEF0132
:10168000F9CF9093E0018093DF01CDCFFE01E20F0F
:10169000F31F819391932250310939832883D7CF47
:1016A0002091DD013091DE01232B41F420910201D4
:1016B000309103013093DE012093DD012091000180
:1016C000309101012115310541F42DB73EB740910C
:1016D000040150910501241B350BE091DD01F091CF
:1016E000DE01E217F307A0F42E1B3F0B2817390782
:1016F00078F0AC014E5F5F4F2417350748F04E0F6E
:101700005F1F5093DE014093DD01819391939FCF42
:10171000F0E0E0E09CCFCF93DF930097E9F0FC018D
:10172000329713821282A091DF01B091E001ED01A6
:1017300030E020E01097A1F420813181820F931FC7
:101740002091DD013091DE012817390709F061C0D1
:10175000F093DE01E093DD01DF91CF910895EA017E
:10176000CE17DF07E8F54A815B819E0141155105DF
:10177000B1F7E901FB83EA8349915991C40FD51F61
:10178000EC17FD0761F4808191810296840F951F0B
:10179000E90199838883828193819B838A83F0E026
:1017A000E0E012968D919C9113970097B9F52D91D9
:1017B0003C911197CD010296820F931F2091DD017C
:1017C0003091DE012817390739F6309751F510921C
:1017D000E0011092DF01B093DE01A093DD01BCCFE8
:1017E000D383C28340815181840F951FC817D907C5
:1017F00061F44E5F5F4F88819981480F591F518373
:1018000040838A819B81938382832115310509F06E
:10181000B0CFF093E001E093DF019ECFFD01DC014A
:0C182000C0CF13821282D7CFF894FFCF04
:10182C000000E1018000000000004601A600D3008A
:10183C0093010401E200F6000D0A006E616E00696E
:08184C006E66006F7666000075
:00000001FF
