:100000000C9477000C949F000C949F000C949F001C
:100010000C949F000C949F000C949F000C949F00E4
:100020000C949F000C949F000C949F000C949F00D4
:100030000C949F000C949F000C949F000C949F00C4
:100040000C94D9070C949F000C94A7070C9481077B
:100050000C949F000C949F000C949F000C949F00A4
:100060000C949F000C949F000000000024002700C7
:100070002A0000000000250028002B0000000008D6
:10008000000201000003040700000000000000005F
:100090004448542046696E616C004661696C656431
:1000A00020746F20726561642066726F6D20444811
:1000B000542073656E736F722100000000002300EE
:1000C00026002900040404040404040402020202B9
:1000D000020203030303030301020408102040800B
:1000E0000102040810200102040810202308112432
:1000F0001FBECFEFD8E0DEBFCDBF11E0A0E0B1E082
:10010000E8E9F8E102C005900D92A232B107D9F7F3
:1001100021E0A2E2B1E001C01D92AA3DB207E1F7E1
:1001200010E0C7E7D0E004C02197FE010E94440C14
:10013000C637D107C9F70E9470080C944A0C0C947A
:1001400000008F929F92AF92BF92CF92DF92EF9278
:10015000FF92CF93DF93A091CF0130E081113A2F2E
:100160008091D00190E0880F991FAC0146545F4FF9
:10017000C090D501D090D601E090D701F090D80181
:1001800060E070E0CB01FA01C591D49128812A2367
:1001900023130FC04B015C012FEF821A920AA20AAF
:1001A000B20A6C157D058E059F0570F060E070E069
:1001B000CB01DF91CF91FF90EF90DF90CF90BF9078
:1001C000AF909F908F900895C501B401DCCFAF929E
:1001D000BF92CF92DF92EF92FF920F931F93CF9334
:1001E000DF936C017B018B01040F151FEB015E0196
:1001F000AE18BF08C017D10759F06991D601ED912B
:10020000FC910190F081E02DC6010995892B79F7C9
:10021000C501DF91CF911F910F91FF90EF90DF907B
:10022000CF90BF90AF900895FC01538D448D252F42
:1002300030E0842F90E0821B930B541710F0CF9680
:10024000089501970895FC01918D828D981761F0B2
:10025000A28DAE0FBF2FB11D5D968C91928D9F5FC9
:100260009F73928F90E008958FEF9FEF0895FC01A8
:10027000918D828D981731F0828DE80FF11D858D5B
:1002800090E008958FEF9FEF0895FC01918D228DEE
:10029000892F90E0805C9F4F821B91098F73992773
:1002A00008958BE291E00E94450121E0892B09F439
:1002B00020E0822F089580E090E0892B29F00E94B1
:1002C000510181110C9400000895FC01A48DA80F28
:1002D000B92FB11DA35ABF4F2C91848D90E0019688
:1002E0008F739927848FA689B7892C93A089B189A8
:1002F0008C91837080648C93938D848D981306C049
:100300000288F389E02D80818F7D80830895EF92AC
:10031000FF920F931F93CF93DF93EC0181E0888FBF
:100320009B8D8C8D98131AC0E889F989808185FF8F
:1003300015C09FB7F894EE89FF896083E889F98931
:1003400080818370806480839FBF81E090E0DF9133
:10035000CF911F910F91FF90EF900895F62E0B8D86
:1003600010E00F5F1F4F0F731127E02E8C8D8E1141
:100370000CC00FB607FCFACFE889F989808185FFA8
:10038000F5CFCE010E946501F1CFEB8DEC0FFD2F73
:10039000F11DE35AFF4FF0829FB7F8940B8FEA8963
:1003A000FB8980818062CFCF0F931F93CF93DF9320
:1003B0008C01D0E0C0E0F801EC0FFD1F64916623D2
:1003C00041F08BE291E00E948701892B11F0219688
:1003D000F2CFCE01DF91CF911F910F910895CF936E
:1003E000DF93EC01888D8823B9F0AA89BB89E8895D
:1003F000F9898C9185FD03C0808186FD0DC00FB603
:1004000007FCF7CF8C9185FFF2CF808185FFEDCF80
:10041000CE010E946501E9CFDF91CF91089590E070
:10042000FC01E458FF4F2491FC01E852FF4F349146
:10043000FC01EC53FF4FE491EE23C9F0222339F085
:10044000233001F1A8F4213019F1223029F1F0E034
:10045000EE0FFF1FEE58FF4FA591B4918FB7F894A0
:10046000EC91611126C030953E233C938FBF0895D7
:100470002730A9F02830C9F0243049F78091800056
:100480008F7D03C0809180008F7780938000DFCFC5
:1004900084B58F7784BDDBCF84B58F7DFBCF809112
:1004A000B0008F778093B000D2CF8091B0008F7D65
:1004B000F9CF3E2BDACFCF93DF9390E0FC01E852E7
:1004C000FF4F24918C539F4FFC0184918823D1F0DE
:1004D00090E0880F991FFC01E859FF4FA591B49156
:1004E000FC01EE58FF4FC591D491623071F49FB773
:1004F000F8943C91822F809583238C93E8812E2B56
:1005000028839FBFDF91CF9108958FB7F894EC9126
:100510002E2B2C938FBFF6CF3FB7F89480912301F9
:1005200090912401A0912501B091260126B5A89BA8
:1005300005C02F3F19F00196A11DB11D3FBFBA2F75
:10054000A92F982F8827BC01CD01620F711D811D35
:10055000911D42E0660F771F881F991F4A95D1F7BA
:1005600008958F929F92AF92BF92CF92DF92EF92B7
:10057000FF924B015C010E948C026B017C010E9486
:100580008C026C197D098E099F09683E73408105B4
:100590009105A8F321E0821A9108A108B10888EE1C
:1005A000C80E83E0D81EE11CF11C81149104A10443
:1005B000B10429F7FF90EF90DF90CF90BF90AF90FC
:1005C0009F908F900895CF92DF92EF92FF920F93BA
:1005D0001F93CF93DF93CDB7DEB7C054D1400FB692
:1005E000F894DEBF0FBECDBF2FB7F89480912701DE
:1005F00090912801A0912901B0912A012FBF40912B
:10060000D1015091D2016091D3017091D4018C013C
:100610009D01041B150B260B370BB901A801403DAA
:1006200057406105710590F48091D901C05CDE4F9F
:100630000FB6F894DEBF0FBECDBFDF91CF911F91F3
:100640000F91FF90EF90DF90CF9008958093D101AC
:100650009093D201A093D301B093D4011092CC0116
:100660001092CB011092CA011092C9011092C801D8
:1006700061E08091CD010E940F026AEF70E080E09E
:1006800090E00E94B10261E08091CD010E945B0286
:1006900060E08091CD010E940F0264E170E080E093
:1006A00090E00E94B102F89461E08091CD010E9437
:1006B0000F028BE990E00197F1F762E08091CD01A4
:1006C0000E945B0283E290E00197F1F780E00E94D4
:1006D000A100672B682B692B29F41092D90178941B
:1006E00080E0A4CF81E00E94A100672B682B692BDA
:1006F000A1F38E010F5F1F4F6E012FEBC21A2EEF79
:10070000D20A780180E00E94A100F7016083718322
:100710008283938381E00E94A100F7016483758343
:1007200086839783F8E0EF0EF11CEC14FD0451F77B
:10073000789430E020E0F801C080D180E280F3803E
:100740004481558166817781C114D104E104F104AB
:1007500029F0411551056105710519F41092D9016F
:10076000BFCFF90183E0F595E7958A95E1F7E85366
:10077000FE4F8081880FC416D506E606F70610F1F5
:1007800080832F5F3F4F085F1F4F2832310599F656
:100790004091CC012091C8018091C901280F3327D5
:1007A000331F8091CA01280F311D8091CB01820F28
:1007B000932F911D99274817190681F681E08093A0
:1007C000D90134CF8160DCCFCF92DF92EF92FF92DC
:1007D000CF93DF93C82F0E94E302882341F08091DA
:1007E000CE018B3049F018F08551823008F160E07D
:1007F00070E080EC9FE715C06091CA0170E090E066
:1008000080E00E949E0ACC2361F026E636E646EEA2
:100810005FE30E94550B20E030E040E052E40E948C
:100820008C09DF91CF91FF90EF90DF90CF900895EA
:10083000D091CA016D2F6F7770E090E080E00E9448
:10084000A00A20E030E040E853E40E94550B6B0121
:100850007C016091CB0170E090E080E00E94A00AF2
:10086000A70196010E948C092DEC3CEC4CEC5DE359
:100870000E94550BD7FFC7CF9058C5CFFC01019000
:100880000020E9F73197AF01481B590BBC018BE2FF
:1008900091E00C94E7008F929F92AF92BF920F93DA
:1008A0001F93CF93DF93CDB7DEB7A1970FB6F89420
:1008B000DEBF0FBECDBF19A2423008F44AE08E0160
:1008C0000F5D1F4F842E912CB12CA12CA5019401FA
:1008D0000E94220CE62FB901CA01EA30F4F4E05D6F
:1008E000D801EE938D01232B242B252B79F790E053
:1008F00080E0109719F0CD010E943E04A1960FB63A
:10090000F894DEBF0FBECDBFDF91CF911F910F9145
:10091000BF90AF909F908F900895E95CE1CF4F9288
:100920005F926F927F928F929F92AF92BF92CF927F
:10093000DF92EF92FF920F931F93CF936B017C0195
:10094000742EAC019B010E94080C882399F082E16F
:1009500091E0CF911F910F91FF90EF90DF90CF909A
:10096000BF90AF909F908F907F906F905F904F90CF
:100970000C943E0446015701E894B7F82FEF3FEF7F
:100980004FE75FE7C501B4010E94080C81110DC05B
:100990002FEF3FEF4FE75FE7C501B4010E94F80971
:1009A00018161CF486E191E0D4CF2FEF3FEF4FE70C
:1009B0005FE4C701B6010E94500B18161CF48AE1CF
:1009C00091E0C7CF2FEF3FEF4FE75FECC701B601D4
:1009D0000E94F80987FDF3CF20E030E0A901C701AC
:1009E000B6010E94F80910E000E087FF0AC06DE23E
:1009F0008BE291E00E9487018C01F7FAF094F7F8FE
:100A0000F094C0E060E070E080E09FE37C1641F08D
:100A100020E030E040E251E40E94FD09CF5FF6CFD4
:100A2000A70196010E948C092B013C010E946F0ACC
:100A30004B015C014AE00E944B047C01E00EF11E78
:100A4000CC23C1F1C501B4010E949E0A9B01AC01F7
:100A5000C301B2010E948B094B015C016EE28BE283
:100A600091E00E948701E80EF91EC15018F120E0C4
:100A700030E040E251E4C501B4010E94550B2B0166
:100A80003C010E946F0A4B01B12CA12C4AE0C50128
:100A9000B4010E944B04E80EF91EC501B4010E9486
:100AA0009E0A9B01AC01C301B2010E948B094B015C
:100AB0005C01DBCFC701CF911F910F91FF90EF90A9
:100AC000DF90CF90BF90AF909F908F907F906F906E
:100AD0005F904F9008954F925F926F927F928F92A6
:100AE0009F92AF92BF92CF92DF92EF92FF920F93BD
:100AF000CF93DF93CDB7DEB728970FB6F894DEBF5C
:100B00000FBECDBF6B017C0149015A0101110EC01E
:100B100026E636E646EE5FE30E94550B20E030E025
:100B200040E052E40E948C096B017C0120E030E03F
:100B300048E852E4C701B6010E948B092AE939E965
:100B400049E95FE30E94550B2B013C0120E030E0B6
:100B500044E752E4C701B6010E948C099B01AC0135
:100B6000C301B2010E948C092B013C0122E133E850
:100B700040EC5DE3C501B4010E94550B9B01AC0143
:100B8000C301B2010E948C0920E030E040E05FE345
:100B90000E94550B2B013C0120E030E04EE952E46D
:100BA0000E94500B18160CF023C1A7019601C70133
:100BB000B6010E94550B2B013C01A5019401C50112
:100BC000B4010E94550B6D837E838F83988721E14A
:100BD00033E243E050E4C701B6010E94550B29E11E
:100BE00034E849E252E40E948B0969837A838B835B
:100BF0009C8326E13BE442E251E4C501B4010E943A
:100C0000550B9B01AC0169817A818B819C810E948B
:100C10008C0969837A838B839C8328E436E246E6D9
:100C20005EEBC701B6010E94550BA50194010E941D
:100C3000550B9B01AC0169817A818B819C810E945B
:100C40008C0969837A838B839C8320EE3FE040EE9E
:100C50005BEBC301B2010E94550B9B01AC016981A2
:100C60007A818B819C810E948C0969837A838B8332
:100C70009C8328EF37E840E65DEB6D817E818F81B4
:100C800098850E94550B9B01AC0169817A818B810B
:100C90009C810E948C0969837A838B839C832CEAD4
:100CA0003DE041EA5AE3C301B2010E94550BA501A0
:100CB00094010E94550B9B01AC0169817A818B8163
:100CC0009C810E948C0969837A838B839C8328ECA6
:100CD0003FE84FE55AE3C701B6010E94550B2D814D
:100CE0003E814F8158850E94550B9B01AC01698163
:100CF0007A818B819C810E948C0969837A838B83A2
:100D00009C8321EF3BE845E056EBC301B2010E9412
:100D1000550B2D813E814F8158850E94550B9B01BB
:100D2000AC0169817A818B819C810E948C092B01A5
:100D30003C0120E030E040E551E4C501B4010E94EF
:100D4000F80987FF88C020E030E040EA52E4C7019C
:100D5000B6010E94500B87FD7EC020E030E040EEDF
:100D600052E4C701B6010E94F80918160CF4BDC080
:100D7000A501940160E070E080E591E40E948B0998
:100D800020E030E040E85EE30E94550B4B015C013F
:100D900020E030E04EEB52E4C701B6010E948B091F
:100DA0006B017C0120E030E0A9010E94500B181675
:100DB0000CF048C0A701960160E070E088E891E47B
:100DC0000E948B092EE33DEE40E75DE30E94550B48
:100DD0000E94C80B9B01AC01C501B4010E94550BD8
:100DE0009B01AC01C301B2010E948B092B013C01A4
:100DF000011110C020E030E040E052E4C301B20134
:100E00000E948B0926E838E34EE05FE30E94550B11
:100E10002B013C01C301B20128960FB6F894DEBF46
:100E20000FBECDBFDF91CF910F91FF90EF90DF907C
:100E3000CF90BF90AF909F908F907F906F905F907A
:100E40004F90089520E030E048E851E4C701B60132
:100E50000E948C09B7CF20E030E04AEA52E4C50195
:100E6000B4010E94500B18161CF620E030E040EA56
:100E700052E4C701B6010E94500B87FDB9CF20E0B4
:100E800030E04EEA52E4C701B6010E94F809181694
:100E90000CF4AECF20E030E04AEA52E4C501B401E0
:100EA0000E948B092DEC3CEC4CEC5DE30E94550B51
:100EB0004B015C01A701960160E070E08EEA92E4CC
:100EC0000E948B092DEC3CEC4CE45EE30E94550B38
:100ED0009B01AC01C501B4010E94550B9B01AC0103
:100EE000C301B2010E948C0981CF20E030E04AEAC0
:100EF00052E4C501B4010E94500B18160CF4BFCF88
:100F000077CF1F920F920FB60F9211242F933F931A
:100F10004F935F936F937F938F939F93AF93BF9301
:100F2000EF93FF938BE291E00E946501FF91EF91B7
:100F3000BF91AF919F918F917F916F915F914F91F1
:100F40003F912F910F900FBE0F901F9018951F92F9
:100F50000F920FB60F9211242F938F939F93EF93BD
:100F6000FF93E0913B01F0913C018081E0914101D0
:100F7000F091420182FD1BC09081809144018F5FFE
:100F80008F7320914501821741F0E0914401F0E018
:100F9000E55DFE4F958F80934401FF91EF919F9106
:100FA0008F912F910F900FBE0F901F9018958081F9
:100FB000F4CF1F920F920FB60F9211242F933F93ED
:100FC0008F939F93AF93BF938091270190912801B6
:100FD000A0912901B0912A013091220123E0230F31
:100FE0002D3758F50196A11DB11D20932201809344
:100FF000270190932801A0932901B0932A018091A1
:10100000230190912401A0912501B0912601019620
:10101000A11DB11D8093230190932401A09325016C
:10102000B0932601BF91AF919F918F913F912F91E6
:101030000F900FBE0F901F90189526E8230F029671
:10104000A11DB11DD2CFEBE2F1E01382128288EE36
:1010500093E0A0E0B0E084839583A683B78384E027
:1010600091E09183808385EC90E09587848784EC80
:1010700090E09787868780EC90E0918B808B81EC65
:1010800090E0938B828B82EC90E0958B848B86EC46
:1010900090E0978B868B118E128E138E148EA8EC97
:1010A000B1E082E015968C9315978BE016968C93A1
:1010B0001697EAEDF0E0E4911796EC931797E6ECBB
:1010C000F0E0E4911896EC93189740E85EE360E056
:1010D00070E01D964D935D936D937C9350970895AA
:1010E000789484B5826084BD84B5816084BD85B503
:1010F000826085BD85B5816085BD80916E0081600F
:1011000080936E00109281008091810082608093B4
:1011100081008091810081608093810080918000B6
:101120008160809380008091B10084608093B100E1
:101130008091B00081608093B00080917A008460DB
:1011400080937A0080917A00826080937A00809107
:101150007A00816080937A0080917A008068809321
:101160007A001092C100E0913B01F0913C0182E0D5
:101170008083E0913701F09138011082E0913901CC
:10118000F0913A018FEC808310924301E0913F018E
:10119000F091400186E08083E0913D01F0913E01B5
:1011A000808180618083E0913D01F0913E018081EA
:1011B00088608083E0913D01F0913E0180818068EC
:1011C0008083E0913D01F0913E0180818F7D80839D
:1011D00080E990E00E94D4018EE191E00E943E04FB
:1011E00062E08091CD010E945B0280E398EFAFEF57
:1011F000BFEF8093D1019093D201A093D301B0931C
:10120000D401C0E0D0E064EF71E080E090E00E94A3
:10121000B1020E94E302882349F08091CE018B3015
:1012200061F020F08551823008F445C0C12CD12CEA
:1012300080ECE82E8FE7F82E09C06091C80170E0BD
:1012400090E080E00E949E0A6B017C0180E00E9499
:10125000E4034B015C0181E00E94E4032B013C01AB
:10126000A7019601C701B6010E94080C811110C0A8
:10127000A5019401C501B4010E94080C811108C0A8
:10128000A3019201C301B2010E94080C8823A1F1BD
:101290008AE990E00E94D4018EE191E00E943E0430
:1012A000209709F4B0CF0E945101882309F4ABCFF5
:1012B0000E940000A8CF6091C80170E090E080E03B
:1012C0000E949E0A20E030E040E853E40E94550B63
:1012D0006B017C016091C90170E090E080E00E94A8
:1012E000A00AA70196010E948C092DEC3CEC4CEC65
:1012F0005DE30E94550BA8CF42E0C501B4010E94F6
:101300008F048EE191E00E943E0442E0C701B601E5
:101310000E948F04C1CF5058BB27AA270E94A3095F
:101320000C94160B0E94080B38F00E940F0B20F053
:1013300039F49F3F19F426F40C94050B0EF4E09554
:10134000E7FB0C94FF0AE92F0E94270B58F3BA170A
:10135000620773078407950720F079F4A6F50C94CB
:10136000490B0EF4E0950B2EBA2FA02D0B01B901FD
:1013700090010C01CA01A0011124FF27591B99F00B
:10138000593F50F4503E68F11A16F040A22F232F17
:10139000342F4427585FF3CF469537952795A79567
:1013A000F0405395C9F77EF41F16BA0B620B730B0E
:1013B000840BBAF09150A1F0FF0FBB1F661F771F7F
:1013C000881FC2F70EC0BA0F621F731F841F48F434
:1013D000879577956795B795F7959E3F08F0B0CFBD
:1013E0009395880F08F09927EE0F979587950895A4
:1013F0000E94DB0A08F481E008950E94110A0C940F
:10140000160B0E940F0B58F00E94080B40F029F4B5
:101410005F3F29F00C94FF0A51110C944A0B0C9475
:10142000050B0E94270B68F39923B1F3552391F321
:10143000951B550BBB27AA2762177307840738F043
:101440009F5F5F4F220F331F441FAA1FA9F335D0A0
:101450000E2E3AF0E0E832D091505040E695001C54
:10146000CAF72BD0FE2F29D0660F771F881FBB1F0E
:10147000261737074807AB07B0E809F0BB0B802DEC
:10148000BF01FF2793585F4F3AF09E3F510578F018
:101490000C94FF0A0C944A0B5F3FE4F3983ED4F39C
:1014A000869577956795B795F7959F5FC9F7880FEC
:1014B000911D9695879597F90895E1E0660F771F3E
:1014C000881FBB1F621773078407BA0720F0621BCF
:1014D000730B840BBA0BEE1F88F7E09508950E94FA
:1014E0002F0B88F09F5798F0B92F9927B751B0F07C
:1014F000E1F0660F771F881F991F1AF0BA95C9F798
:1015000014C0B13091F00E94490BB1E008950C94E1
:10151000490B672F782F8827B85F39F0B93FCCF394
:10152000869577956795B395D9F73EF49095809514
:10153000709561957F4F8F4F9F4F0895E89409C034
:1015400097FB3EF490958095709561957F4F8F4FF6
:101550009F4F9923A9F0F92F96E9BB279395F6950C
:10156000879577956795B795F111F8CFFAF4BB0F8A
:1015700011F460FF1BC06F5F7F4F8F4F9F4F16C0EE
:10158000882311F096E911C0772321F09EE8872F78
:10159000762F05C0662371F096E8862F70E060E034
:1015A0002AF09A95660F771F881FDAF7880F9695AD
:1015B000879597F90895990F0008550FAA0BE0E851
:1015C000FEEF16161706E807F907C0F01216130605
:1015D000E407F50798F0621B730B840B950B39F445
:1015E0000A2661F0232B242B252B21F408950A26AB
:1015F00009F4A140A6958FEF811D811D089597F9EB
:101600009F6780E870E060E008959FEF80EC0895A8
:1016100000240A94161617061806090608950024D1
:101620000A9412161306140605060895092E03944B
:10163000000C11F4882352F0BB0F40F4BF2B11F4BF
:1016400060FF04C06F5F7F4F8F4F9F4F089557FD1E
:101650009058440F551F59F05F3F71F04795880F20
:1016600097FB991F61F09F3F79F0879508951216B7
:1016700013061406551FF2CF4695F1DF08C0161663
:1016800017061806991FF1CF869571056105089414
:101690000895E894BB2766277727CB0197F908952B
:1016A0000E94DB0A08F48FEF08950E94680B0C94E7
:1016B000160B0E94080B38F00E940F0B20F09523A8
:1016C00011F00C94FF0A0C94050B11240C944A0B96
:1016D0000E94270B70F3959FC1F3950F50E0551FA3
:1016E000629FF001729FBB27F00DB11D639FAA2777
:1016F000F00DB11DAA1F649F6627B00DA11D661FC6
:10170000829F2227B00DA11D621F739FB00DA11DE6
:10171000621F839FA00D611D221F749F3327A00DA0
:10172000611D231F849F600D211D822F762F6A2F3C
:1017300011249F5750409AF0F1F088234AF0EE0FA1
:10174000FF1FBB1F661F771F881F91505040A9F7CE
:101750009E3F510580F00C94FF0A0C944A0B5F3FAA
:10176000E4F3983ED4F3869577956795B795F7950A
:10177000E7959F5FC1F7FE2B880F911D9695879582
:1017800097F9089519F416F40C94050B0C940D0CAC
:101790000E942F0BB8F39923C9F3B6F39F57550B4B
:1017A00087FF0E941B0C0024A0E640EA90018058AD
:1017B0005695979528F4805C660F771F881F20F058
:1017C00026173707480730F4621B730B840B202958
:1017D00031294A2BA69517940794202531254A27AD
:1017E00058F7660F771F881F20F02617370748071E
:1017F00030F4620B730B840B200D311D411DA0953D
:1018000081F7B901842F9158880F9695879508958F
:101810000E94DB0A880B990B08959F3F31F091508D
:1018200020F4879577956795B795880F911D9695C4
:10183000879597F9089591505040660F771F881F3C
:10184000D2F70895A1E21A2EAA1BBB1BFD010DC001
:10185000AA1FBB1FEE1FFF1FA217B307E407F50760
:1018600020F0A21BB30BE40BF50B661F771F881F3C
:10187000991F1A9469F760957095809590959B01D2
:10188000AC01BD01CF010895EE0FFF1F0590F4914B
:08189000E02D0994F894FFCF4C
:10189800000000008701E7001401EF014501230162
:1018A80037016E616E00696E66006F7666000D0A1C
:0218B80000002E
:00000001FF
